{
  "contractName": "NFTContract",
  "abi": [
    {
      "inputs": [],
      "stateMutability": "nonpayable",
      "type": "constructor"
    },
    {
      "anonymous": false,
      "inputs": [
        {
          "indexed": true,
          "internalType": "address",
          "name": "owner",
          "type": "address"
        },
        {
          "indexed": true,
          "internalType": "address",
          "name": "approved",
          "type": "address"
        },
        {
          "indexed": true,
          "internalType": "uint256",
          "name": "tokenId",
          "type": "uint256"
        }
      ],
      "name": "Approval",
      "type": "event"
    },
    {
      "anonymous": false,
      "inputs": [
        {
          "indexed": true,
          "internalType": "address",
          "name": "owner",
          "type": "address"
        },
        {
          "indexed": true,
          "internalType": "address",
          "name": "operator",
          "type": "address"
        },
        {
          "indexed": false,
          "internalType": "bool",
          "name": "approved",
          "type": "bool"
        }
      ],
      "name": "ApprovalForAll",
      "type": "event"
    },
    {
      "anonymous": false,
      "inputs": [
        {
          "indexed": true,
          "internalType": "address",
          "name": "from",
          "type": "address"
        },
        {
          "indexed": true,
          "internalType": "address",
          "name": "to",
          "type": "address"
        },
        {
          "indexed": true,
          "internalType": "uint256",
          "name": "tokenId",
          "type": "uint256"
        }
      ],
      "name": "Transfer",
      "type": "event"
    },
    {
      "inputs": [
        {
          "internalType": "address",
          "name": "to",
          "type": "address"
        },
        {
          "internalType": "uint256",
          "name": "tokenId",
          "type": "uint256"
        }
      ],
      "name": "approve",
      "outputs": [],
      "stateMutability": "nonpayable",
      "type": "function"
    },
    {
      "inputs": [
        {
          "internalType": "address",
          "name": "owner",
          "type": "address"
        }
      ],
      "name": "balanceOf",
      "outputs": [
        {
          "internalType": "uint256",
          "name": "",
          "type": "uint256"
        }
      ],
      "stateMutability": "view",
      "type": "function"
    },
    {
      "inputs": [
        {
          "internalType": "uint256",
          "name": "tokenId",
          "type": "uint256"
        }
      ],
      "name": "getApproved",
      "outputs": [
        {
          "internalType": "address",
          "name": "",
          "type": "address"
        }
      ],
      "stateMutability": "view",
      "type": "function"
    },
    {
      "inputs": [
        {
          "internalType": "address",
          "name": "owner",
          "type": "address"
        },
        {
          "internalType": "address",
          "name": "operator",
          "type": "address"
        }
      ],
      "name": "isApprovedForAll",
      "outputs": [
        {
          "internalType": "bool",
          "name": "",
          "type": "bool"
        }
      ],
      "stateMutability": "view",
      "type": "function"
    },
    {
      "inputs": [],
      "name": "name",
      "outputs": [
        {
          "internalType": "string",
          "name": "",
          "type": "string"
        }
      ],
      "stateMutability": "view",
      "type": "function"
    },
    {
      "inputs": [
        {
          "internalType": "uint256",
          "name": "tokenId",
          "type": "uint256"
        }
      ],
      "name": "ownerOf",
      "outputs": [
        {
          "internalType": "address",
          "name": "",
          "type": "address"
        }
      ],
      "stateMutability": "view",
      "type": "function"
    },
    {
      "inputs": [
        {
          "internalType": "address",
          "name": "from",
          "type": "address"
        },
        {
          "internalType": "address",
          "name": "to",
          "type": "address"
        },
        {
          "internalType": "uint256",
          "name": "tokenId",
          "type": "uint256"
        }
      ],
      "name": "safeTransferFrom",
      "outputs": [],
      "stateMutability": "nonpayable",
      "type": "function"
    },
    {
      "inputs": [
        {
          "internalType": "address",
          "name": "from",
          "type": "address"
        },
        {
          "internalType": "address",
          "name": "to",
          "type": "address"
        },
        {
          "internalType": "uint256",
          "name": "tokenId",
          "type": "uint256"
        },
        {
          "internalType": "bytes",
          "name": "_data",
          "type": "bytes"
        }
      ],
      "name": "safeTransferFrom",
      "outputs": [],
      "stateMutability": "nonpayable",
      "type": "function"
    },
    {
      "inputs": [
        {
          "internalType": "address",
          "name": "operator",
          "type": "address"
        },
        {
          "internalType": "bool",
          "name": "approved",
          "type": "bool"
        }
      ],
      "name": "setApprovalForAll",
      "outputs": [],
      "stateMutability": "nonpayable",
      "type": "function"
    },
    {
      "inputs": [
        {
          "internalType": "bytes4",
          "name": "interfaceId",
          "type": "bytes4"
        }
      ],
      "name": "supportsInterface",
      "outputs": [
        {
          "internalType": "bool",
          "name": "",
          "type": "bool"
        }
      ],
      "stateMutability": "view",
      "type": "function"
    },
    {
      "inputs": [],
      "name": "symbol",
      "outputs": [
        {
          "internalType": "string",
          "name": "",
          "type": "string"
        }
      ],
      "stateMutability": "view",
      "type": "function"
    },
    {
      "inputs": [],
      "name": "tokenCounter",
      "outputs": [
        {
          "internalType": "uint256",
          "name": "",
          "type": "uint256"
        }
      ],
      "stateMutability": "view",
      "type": "function"
    },
    {
      "inputs": [
        {
          "internalType": "uint256",
          "name": "tokenId",
          "type": "uint256"
        }
      ],
      "name": "tokenURI",
      "outputs": [
        {
          "internalType": "string",
          "name": "",
          "type": "string"
        }
      ],
      "stateMutability": "view",
      "type": "function"
    },
    {
      "inputs": [
        {
          "internalType": "address",
          "name": "from",
          "type": "address"
        },
        {
          "internalType": "address",
          "name": "to",
          "type": "address"
        },
        {
          "internalType": "uint256",
          "name": "tokenId",
          "type": "uint256"
        }
      ],
      "name": "transferFrom",
      "outputs": [],
      "stateMutability": "nonpayable",
      "type": "function"
    },
    {
      "inputs": [
        {
          "internalType": "string",
          "name": "tokenURI",
          "type": "string"
        }
      ],
      "name": "createCollectible",
      "outputs": [
        {
          "internalType": "uint256",
          "name": "",
          "type": "uint256"
        }
      ],
      "stateMutability": "nonpayable",
      "type": "function"
    }
  ],
  "bytecode": "0x60806040523480156200001157600080fd5b506040518060400160405280600b81526020017f4e4654436f6e74726163740000000000000000000000000000000000000000008152506040518060400160405280600581526020017f4e46544352000000000000000000000000000000000000000000000000000000815250816000908051906020019062000096929190620000c0565b508060019080519060200190620000af929190620000c0565b5050506000600681905550620001d5565b828054620000ce9062000170565b90600052602060002090601f016020900481019282620000f257600085556200013e565b82601f106200010d57805160ff19168380011785556200013e565b828001600101855582156200013e579182015b828111156200013d57825182559160200191906001019062000120565b5b5090506200014d919062000151565b5090565b5b808211156200016c57600081600090555060010162000152565b5090565b600060028204905060018216806200018957607f821691505b60208210811415620001a0576200019f620001a6565b5b50919050565b7f4e487b7100000000000000000000000000000000000000000000000000000000600052602260045260246000fd5b61298a80620001e56000396000f3fe608060405234801561001057600080fd5b50600436106100f55760003560e01c80636352211e11610097578063b88d4fde11610066578063b88d4fde14610296578063c87b56dd146102b2578063d082e381146102e2578063e985e9c514610300576100f5565b80636352211e146101fc57806370a082311461022c57806395d89b411461025c578063a22cb4651461027a576100f5565b8063095ea7b3116100d3578063095ea7b31461017857806323b872dd1461019457806331f1f3c3146101b057806342842e0e146101e0576100f5565b806301ffc9a7146100fa57806306fdde031461012a578063081812fc14610148575b600080fd5b610114600480360381019061010f9190611b63565b610330565b6040516101219190612302565b60405180910390f35b610132610412565b60405161013f919061231d565b60405180910390f35b610162600480360381019061015d9190611bf6565b6104a4565b60405161016f919061229b565b60405180910390f35b610192600480360381019061018d9190611b27565b610529565b005b6101ae60048036038101906101a99190611a21565b610641565b005b6101ca60048036038101906101c59190611bb5565b6106a1565b6040516101d7919061251f565b60405180910390f35b6101fa60048036038101906101f59190611a21565b6106db565b005b61021660048036038101906102119190611bf6565b6106fb565b604051610223919061229b565b60405180910390f35b610246600480360381019061024191906119bc565b6107ad565b604051610253919061251f565b60405180910390f35b610264610865565b604051610271919061231d565b60405180910390f35b610294600480360381019061028f9190611aeb565b6108f7565b005b6102b060048036038101906102ab9190611a70565b610a78565b005b6102cc60048036038101906102c79190611bf6565b610ada565b6040516102d9919061231d565b60405180910390f35b6102ea610b81565b6040516102f7919061251f565b60405180910390f35b61031a600480360381019061031591906119e5565b610b87565b6040516103279190612302565b60405180910390f35b60007f80ac58cd000000000000000000000000000000000000000000000000000000007bffffffffffffffffffffffffffffffffffffffffffffffffffffffff1916827bffffffffffffffffffffffffffffffffffffffffffffffffffffffff191614806103fb57507f5b5e139f000000000000000000000000000000000000000000000000000000007bffffffffffffffffffffffffffffffffffffffffffffffffffffffff1916827bffffffffffffffffffffffffffffffffffffffffffffffffffffffff1916145b8061040b575061040a82610c1b565b5b9050919050565b6060600080546104219061277f565b80601f016020809104026020016040519081016040528092919081815260200182805461044d9061277f565b801561049a5780601f1061046f5761010080835404028352916020019161049a565b820191906000526020600020905b81548152906001019060200180831161047d57829003601f168201915b5050505050905090565b60006104af82610c85565b6104ee576040517f08c379a00000000000000000000000000000000000000000000000000000000081526004016104e59061245f565b60405180910390fd5b6004600083815260200190815260200160002060009054906101000a900473ffffffffffffffffffffffffffffffffffffffff169050919050565b6000610534826106fb565b90508073ffffffffffffffffffffffffffffffffffffffff168373ffffffffffffffffffffffffffffffffffffffff1614156105a5576040517f08c379a000000000000000000000000000000000000000000000000000000000815260040161059c906124df565b60405180910390fd5b8073ffffffffffffffffffffffffffffffffffffffff166105c4610cf1565b73ffffffffffffffffffffffffffffffffffffffff1614806105f357506105f2816105ed610cf1565b610b87565b5b610632576040517f08c379a0000000000000000000000000000000000000000000000000000000008152600401610629906123df565b60405180910390fd5b61063c8383610cf9565b505050565b61065261064c610cf1565b82610db2565b610691576040517f08c379a0000000000000000000000000000000000000000000000000000000008152600401610688906124ff565b60405180910390fd5b61069c838383610e90565b505050565b60008060065490506106b333826110ec565b6106bd818461110a565b60016006546106cc919061260e565b60068190555080915050919050565b6106f683838360405180602001604052806000815250610a78565b505050565b6000806002600084815260200190815260200160002060009054906101000a900473ffffffffffffffffffffffffffffffffffffffff169050600073ffffffffffffffffffffffffffffffffffffffff168173ffffffffffffffffffffffffffffffffffffffff1614156107a4576040517f08c379a000000000000000000000000000000000000000000000000000000000815260040161079b9061241f565b60405180910390fd5b80915050919050565b60008073ffffffffffffffffffffffffffffffffffffffff168273ffffffffffffffffffffffffffffffffffffffff16141561081e576040517f08c379a0000000000000000000000000000000000000000000000000000000008152600401610815906123ff565b60405180910390fd5b600360008373ffffffffffffffffffffffffffffffffffffffff1673ffffffffffffffffffffffffffffffffffffffff168152602001908152602001600020549050919050565b6060600180546108749061277f565b80601f01602080910402602001604051908101604052809291908181526020018280546108a09061277f565b80156108ed5780601f106108c2576101008083540402835291602001916108ed565b820191906000526020600020905b8154815290600101906020018083116108d057829003601f168201915b5050505050905090565b6108ff610cf1565b73ffffffffffffffffffffffffffffffffffffffff168273ffffffffffffffffffffffffffffffffffffffff16141561096d576040517f08c379a00000000000000000000000000000000000000000000000000000000081526004016109649061239f565b60405180910390fd5b806005600061097a610cf1565b73ffffffffffffffffffffffffffffffffffffffff1673ffffffffffffffffffffffffffffffffffffffff16815260200190815260200160002060008473ffffffffffffffffffffffffffffffffffffffff1673ffffffffffffffffffffffffffffffffffffffff16815260200190815260200160002060006101000a81548160ff0219169083151502179055508173ffffffffffffffffffffffffffffffffffffffff16610a27610cf1565b73ffffffffffffffffffffffffffffffffffffffff167f17307eab39ab6107e8899845ad3d59bd9653f200f220920489ca2b5937696c3183604051610a6c9190612302565b60405180910390a35050565b610a89610a83610cf1565b83610db2565b610ac8576040517f08c379a0000000000000000000000000000000000000000000000000000000008152600401610abf906124ff565b60405180910390fd5b610ad48484848461116d565b50505050565b6060610ae582610c85565b610b24576040517f08c379a0000000000000000000000000000000000000000000000000000000008152600401610b1b906124bf565b60405180910390fd5b6000610b2e6111c9565b90506000815111610b4e5760405180602001604052806000815250610b79565b80610b588461125b565b604051602001610b69929190612277565b6040516020818303038152906040525b915050919050565b60065481565b6000600560008473ffffffffffffffffffffffffffffffffffffffff1673ffffffffffffffffffffffffffffffffffffffff16815260200190815260200160002060008373ffffffffffffffffffffffffffffffffffffffff1673ffffffffffffffffffffffffffffffffffffffff16815260200190815260200160002060009054906101000a900460ff16905092915050565b60007f01ffc9a7000000000000000000000000000000000000000000000000000000007bffffffffffffffffffffffffffffffffffffffffffffffffffffffff1916827bffffffffffffffffffffffffffffffffffffffffffffffffffffffff1916149050919050565b60008073ffffffffffffffffffffffffffffffffffffffff166002600084815260200190815260200160002060009054906101000a900473ffffffffffffffffffffffffffffffffffffffff1673ffffffffffffffffffffffffffffffffffffffff1614159050919050565b600033905090565b816004600083815260200190815260200160002060006101000a81548173ffffffffffffffffffffffffffffffffffffffff021916908373ffffffffffffffffffffffffffffffffffffffff160217905550808273ffffffffffffffffffffffffffffffffffffffff16610d6c836106fb565b73ffffffffffffffffffffffffffffffffffffffff167f8c5be1e5ebec7d5bd14f71427d1e84f3dd0314c0f7b2291e5b200ac8c7c3b92560405160405180910390a45050565b6000610dbd82610c85565b610dfc576040517f08c379a0000000000000000000000000000000000000000000000000000000008152600401610df3906123bf565b60405180910390fd5b6000610e07836106fb565b90508073ffffffffffffffffffffffffffffffffffffffff168473ffffffffffffffffffffffffffffffffffffffff161480610e7657508373ffffffffffffffffffffffffffffffffffffffff16610e5e846104a4565b73ffffffffffffffffffffffffffffffffffffffff16145b80610e875750610e868185610b87565b5b91505092915050565b8273ffffffffffffffffffffffffffffffffffffffff16610eb0826106fb565b73ffffffffffffffffffffffffffffffffffffffff1614610f06576040517f08c379a0000000000000000000000000000000000000000000000000000000008152600401610efd9061249f565b60405180910390fd5b600073ffffffffffffffffffffffffffffffffffffffff168273ffffffffffffffffffffffffffffffffffffffff161415610f76576040517f08c379a0000000000000000000000000000000000000000000000000000000008152600401610f6d9061237f565b60405180910390fd5b610f81838383611408565b610f8c600082610cf9565b6001600360008573ffffffffffffffffffffffffffffffffffffffff1673ffffffffffffffffffffffffffffffffffffffff1681526020019081526020016000206000828254610fdc9190612695565b925050819055506001600360008473ffffffffffffffffffffffffffffffffffffffff1673ffffffffffffffffffffffffffffffffffffffff1681526020019081526020016000206000828254611033919061260e565b92505081905550816002600083815260200190815260200160002060006101000a81548173ffffffffffffffffffffffffffffffffffffffff021916908373ffffffffffffffffffffffffffffffffffffffff160217905550808273ffffffffffffffffffffffffffffffffffffffff168473ffffffffffffffffffffffffffffffffffffffff167fddf252ad1be2c89b69c2b068fc378daa952ba7f163c4a11628f55a4df523b3ef60405160405180910390a4505050565b61110682826040518060200160405280600081525061140d565b5050565b61111382610c85565b611152576040517f08c379a00000000000000000000000000000000000000000000000000000000081526004016111499061247f565b60405180910390fd5b80600790805190602001906111689291906117e0565b505050565b611178848484610e90565b61118484848484611468565b6111c3576040517f08c379a00000000000000000000000000000000000000000000000000000000081526004016111ba9061233f565b60405180910390fd5b50505050565b6060600780546111d89061277f565b80601f01602080910402602001604051908101604052809291908181526020018280546112049061277f565b80156112515780601f1061122657610100808354040283529160200191611251565b820191906000526020600020905b81548152906001019060200180831161123457829003601f168201915b5050505050905090565b606060008214156112a3576040518060400160405280600181526020017f30000000000000000000000000000000000000000000000000000000000000008152509050611403565b600082905060005b600082146112d55780806112be906127b1565b915050600a826112ce9190612664565b91506112ab565b60008167ffffffffffffffff811115611317577f4e487b7100000000000000000000000000000000000000000000000000000000600052604160045260246000fd5b6040519080825280601f01601f1916602001820160405280156113495781602001600182028036833780820191505090505b5090505b600085146113fc576001826113629190612695565b9150600a8561137191906127fa565b603061137d919061260e565b60f81b8183815181106113b9577f4e487b7100000000000000000000000000000000000000000000000000000000600052603260045260246000fd5b60200101907effffffffffffffffffffffffffffffffffffffffffffffffffffffffffffff1916908160001a905350600a856113f59190612664565b945061134d565b8093505050505b919050565b505050565b61141783836115ff565b6114246000848484611468565b611463576040517f08c379a000000000000000000000000000000000000000000000000000000000815260040161145a9061233f565b60405180910390fd5b505050565b60006114898473ffffffffffffffffffffffffffffffffffffffff166117cd565b156115f2578373ffffffffffffffffffffffffffffffffffffffff1663150b7a026114b2610cf1565b8786866040518563ffffffff1660e01b81526004016114d494939291906122b6565b602060405180830381600087803b1580156114ee57600080fd5b505af192505050801561151f57506040513d601f19601f8201168201806040525081019061151c9190611b8c565b60015b6115a2573d806000811461154f576040519150601f19603f3d011682016040523d82523d6000602084013e611554565b606091505b5060008151141561159a576040517f08c379a00000000000000000000000000000000000000000000000000000000081526004016115919061233f565b60405180910390fd5b805181602001fd5b63150b7a0260e01b7bffffffffffffffffffffffffffffffffffffffffffffffffffffffff1916817bffffffffffffffffffffffffffffffffffffffffffffffffffffffff1916149150506115f7565b600190505b949350505050565b600073ffffffffffffffffffffffffffffffffffffffff168273ffffffffffffffffffffffffffffffffffffffff16141561166f576040517f08c379a00000000000000000000000000000000000000000000000000000000081526004016116669061243f565b60405180910390fd5b61167881610c85565b156116b8576040517f08c379a00000000000000000000000000000000000000000000000000000000081526004016116af9061235f565b60405180910390fd5b6116c460008383611408565b6001600360008473ffffffffffffffffffffffffffffffffffffffff1673ffffffffffffffffffffffffffffffffffffffff1681526020019081526020016000206000828254611714919061260e565b92505081905550816002600083815260200190815260200160002060006101000a81548173ffffffffffffffffffffffffffffffffffffffff021916908373ffffffffffffffffffffffffffffffffffffffff160217905550808273ffffffffffffffffffffffffffffffffffffffff16600073ffffffffffffffffffffffffffffffffffffffff167fddf252ad1be2c89b69c2b068fc378daa952ba7f163c4a11628f55a4df523b3ef60405160405180910390a45050565b600080823b905060008111915050919050565b8280546117ec9061277f565b90600052602060002090601f01602090048101928261180e5760008555611855565b82601f1061182757805160ff1916838001178555611855565b82800160010185558215611855579182015b82811115611854578251825591602001919060010190611839565b5b5090506118629190611866565b5090565b5b8082111561187f576000816000905550600101611867565b5090565b60006118966118918461256b565b61253a565b9050828152602081018484840111156118ae57600080fd5b6118b984828561273d565b509392505050565b60006118d46118cf8461259b565b61253a565b9050828152602081018484840111156118ec57600080fd5b6118f784828561273d565b509392505050565b60008135905061190e816128f8565b92915050565b6000813590506119238161290f565b92915050565b60008135905061193881612926565b92915050565b60008151905061194d81612926565b92915050565b600082601f83011261196457600080fd5b8135611974848260208601611883565b91505092915050565b600082601f83011261198e57600080fd5b813561199e8482602086016118c1565b91505092915050565b6000813590506119b68161293d565b92915050565b6000602082840312156119ce57600080fd5b60006119dc848285016118ff565b91505092915050565b600080604083850312156119f857600080fd5b6000611a06858286016118ff565b9250506020611a17858286016118ff565b9150509250929050565b600080600060608486031215611a3657600080fd5b6000611a44868287016118ff565b9350506020611a55868287016118ff565b9250506040611a66868287016119a7565b9150509250925092565b60008060008060808587031215611a8657600080fd5b6000611a94878288016118ff565b9450506020611aa5878288016118ff565b9350506040611ab6878288016119a7565b925050606085013567ffffffffffffffff811115611ad357600080fd5b611adf87828801611953565b91505092959194509250565b60008060408385031215611afe57600080fd5b6000611b0c858286016118ff565b9250506020611b1d85828601611914565b9150509250929050565b60008060408385031215611b3a57600080fd5b6000611b48858286016118ff565b9250506020611b59858286016119a7565b9150509250929050565b600060208284031215611b7557600080fd5b6000611b8384828501611929565b91505092915050565b600060208284031215611b9e57600080fd5b6000611bac8482850161193e565b91505092915050565b600060208284031215611bc757600080fd5b600082013567ffffffffffffffff811115611be157600080fd5b611bed8482850161197d565b91505092915050565b600060208284031215611c0857600080fd5b6000611c16848285016119a7565b91505092915050565b611c28816126c9565b82525050565b611c37816126db565b82525050565b6000611c48826125cb565b611c5281856125e1565b9350611c6281856020860161274c565b611c6b816128e7565b840191505092915050565b6000611c81826125d6565b611c8b81856125f2565b9350611c9b81856020860161274c565b611ca4816128e7565b840191505092915050565b6000611cba826125d6565b611cc48185612603565b9350611cd481856020860161274c565b80840191505092915050565b6000611ced6032836125f2565b91507f4552433732313a207472616e7366657220746f206e6f6e20455243373231526560008301527f63656976657220696d706c656d656e74657200000000000000000000000000006020830152604082019050919050565b6000611d53601c836125f2565b91507f4552433732313a20746f6b656e20616c7265616479206d696e746564000000006000830152602082019050919050565b6000611d936024836125f2565b91507f4552433732313a207472616e7366657220746f20746865207a65726f2061646460008301527f72657373000000000000000000000000000000000000000000000000000000006020830152604082019050919050565b6000611df96019836125f2565b91507f4552433732313a20617070726f766520746f2063616c6c6572000000000000006000830152602082019050919050565b6000611e39602c836125f2565b91507f4552433732313a206f70657261746f7220717565727920666f72206e6f6e657860008301527f697374656e7420746f6b656e00000000000000000000000000000000000000006020830152604082019050919050565b6000611e9f6038836125f2565b91507f4552433732313a20617070726f76652063616c6c6572206973206e6f74206f7760008301527f6e6572206e6f7220617070726f76656420666f7220616c6c00000000000000006020830152604082019050919050565b6000611f05602a836125f2565b91507f4552433732313a2062616c616e636520717565727920666f7220746865207a6560008301527f726f2061646472657373000000000000000000000000000000000000000000006020830152604082019050919050565b6000611f6b6029836125f2565b91507f4552433732313a206f776e657220717565727920666f72206e6f6e657869737460008301527f656e7420746f6b656e00000000000000000000000000000000000000000000006020830152604082019050919050565b6000611fd16020836125f2565b91507f4552433732313a206d696e7420746f20746865207a65726f20616464726573736000830152602082019050919050565b6000612011602c836125f2565b91507f4552433732313a20617070726f76656420717565727920666f72206e6f6e657860008301527f697374656e7420746f6b656e00000000000000000000000000000000000000006020830152604082019050919050565b6000612077602c836125f2565b91507f4552433732314d657461646174613a2055524920736574206f66206e6f6e657860008301527f697374656e7420746f6b656e00000000000000000000000000000000000000006020830152604082019050919050565b60006120dd6029836125f2565b91507f4552433732313a207472616e73666572206f6620746f6b656e2074686174206960008301527f73206e6f74206f776e00000000000000000000000000000000000000000000006020830152604082019050919050565b6000612143602f836125f2565b91507f4552433732314d657461646174613a2055524920717565727920666f72206e6f60008301527f6e6578697374656e7420746f6b656e00000000000000000000000000000000006020830152604082019050919050565b60006121a96021836125f2565b91507f4552433732313a20617070726f76616c20746f2063757272656e74206f776e6560008301527f72000000000000000000000000000000000000000000000000000000000000006020830152604082019050919050565b600061220f6031836125f2565b91507f4552433732313a207472616e736665722063616c6c6572206973206e6f74206f60008301527f776e6572206e6f7220617070726f7665640000000000000000000000000000006020830152604082019050919050565b61227181612733565b82525050565b60006122838285611caf565b915061228f8284611caf565b91508190509392505050565b60006020820190506122b06000830184611c1f565b92915050565b60006080820190506122cb6000830187611c1f565b6122d86020830186611c1f565b6122e56040830185612268565b81810360608301526122f78184611c3d565b905095945050505050565b60006020820190506123176000830184611c2e565b92915050565b600060208201905081810360008301526123378184611c76565b905092915050565b6000602082019050818103600083015261235881611ce0565b9050919050565b6000602082019050818103600083015261237881611d46565b9050919050565b6000602082019050818103600083015261239881611d86565b9050919050565b600060208201905081810360008301526123b881611dec565b9050919050565b600060208201905081810360008301526123d881611e2c565b9050919050565b600060208201905081810360008301526123f881611e92565b9050919050565b6000602082019050818103600083015261241881611ef8565b9050919050565b6000602082019050818103600083015261243881611f5e565b9050919050565b6000602082019050818103600083015261245881611fc4565b9050919050565b6000602082019050818103600083015261247881612004565b9050919050565b600060208201905081810360008301526124988161206a565b9050919050565b600060208201905081810360008301526124b8816120d0565b9050919050565b600060208201905081810360008301526124d881612136565b9050919050565b600060208201905081810360008301526124f88161219c565b9050919050565b6000602082019050818103600083015261251881612202565b9050919050565b60006020820190506125346000830184612268565b92915050565b6000604051905081810181811067ffffffffffffffff82111715612561576125606128b8565b5b8060405250919050565b600067ffffffffffffffff821115612586576125856128b8565b5b601f19601f8301169050602081019050919050565b600067ffffffffffffffff8211156125b6576125b56128b8565b5b601f19601f8301169050602081019050919050565b600081519050919050565b600081519050919050565b600082825260208201905092915050565b600082825260208201905092915050565b600081905092915050565b600061261982612733565b915061262483612733565b9250827fffffffffffffffffffffffffffffffffffffffffffffffffffffffffffffffff038211156126595761265861282b565b5b828201905092915050565b600061266f82612733565b915061267a83612733565b92508261268a5761268961285a565b5b828204905092915050565b60006126a082612733565b91506126ab83612733565b9250828210156126be576126bd61282b565b5b828203905092915050565b60006126d482612713565b9050919050565b60008115159050919050565b60007fffffffff0000000000000000000000000000000000000000000000000000000082169050919050565b600073ffffffffffffffffffffffffffffffffffffffff82169050919050565b6000819050919050565b82818337600083830152505050565b60005b8381101561276a57808201518184015260208101905061274f565b83811115612779576000848401525b50505050565b6000600282049050600182168061279757607f821691505b602082108114156127ab576127aa612889565b5b50919050565b60006127bc82612733565b91507fffffffffffffffffffffffffffffffffffffffffffffffffffffffffffffffff8214156127ef576127ee61282b565b5b600182019050919050565b600061280582612733565b915061281083612733565b9250826128205761281f61285a565b5b828206905092915050565b7f4e487b7100000000000000000000000000000000000000000000000000000000600052601160045260246000fd5b7f4e487b7100000000000000000000000000000000000000000000000000000000600052601260045260246000fd5b7f4e487b7100000000000000000000000000000000000000000000000000000000600052602260045260246000fd5b7f4e487b7100000000000000000000000000000000000000000000000000000000600052604160045260246000fd5b6000601f19601f8301169050919050565b612901816126c9565b811461290c57600080fd5b50565b612918816126db565b811461292357600080fd5b50565b61292f816126e7565b811461293a57600080fd5b50565b61294681612733565b811461295157600080fd5b5056fea2646970667358221220fe6d96082a23e71ed55b88a2f1fc600b8b36fd9829f6628d6828cba9871f661a64736f6c63430008000033",
  "immutableReferences": {},
  "source": "//SPDX-License-Identifier: MIT\npragma solidity ^0.8.0;\n\nimport \"@openzeppelin/contracts/token/ERC721/ERC721.sol\";\n\ncontract NFTContract is ERC721 {\n    uint256 public tokenCounter;\n    string private _baseURIExtended;\n\n    constructor() public ERC721(\"NFTContract\", \"NFTCR\") {\n        tokenCounter = 0;\n    }\n\n    function _baseURI() internal virtual override view returns (string memory) {\n        return _baseURIExtended;\n    }\n\n    function _setTokenURI(uint256 tokenId, string memory _tokenURI)\n        internal\n        virtual\n    {\n        require(\n            _exists(tokenId),\n            \"ERC721Metadata: URI set of nonexistent token\"\n        );\n        _baseURIExtended = _tokenURI;\n    }\n\n    function createCollectible(string memory tokenURI)\n        public\n        returns (uint256)\n    {\n        uint256 newItemId = tokenCounter;\n        _safeMint(msg.sender, newItemId);\n        _setTokenURI(newItemId, tokenURI);\n        tokenCounter = tokenCounter + 1;\n        return newItemId;\n    }\n}\n",
  "sourcePath": "/Users/tiberiunicu/nftFromImage/contracts/NFTContract.sol",
  "compiler": {
    "name": "solc",
    "version": "0.8.0+commit.c7dfd78e.Emscripten.clang"
  },
  "schemaVersion": "3.4.0",
  "updatedAt": "2021-08-24T18:53:07.673Z",
  "devdoc": {
    "kind": "dev",
    "methods": {
      "approve(address,uint256)": {
        "details": "See {IERC721-approve}."
      },
      "balanceOf(address)": {
        "details": "See {IERC721-balanceOf}."
      },
      "getApproved(uint256)": {
        "details": "See {IERC721-getApproved}."
      },
      "isApprovedForAll(address,address)": {
        "details": "See {IERC721-isApprovedForAll}."
      },
      "name()": {
        "details": "See {IERC721Metadata-name}."
      },
      "ownerOf(uint256)": {
        "details": "See {IERC721-ownerOf}."
      },
      "safeTransferFrom(address,address,uint256)": {
        "details": "See {IERC721-safeTransferFrom}."
      },
      "safeTransferFrom(address,address,uint256,bytes)": {
        "details": "See {IERC721-safeTransferFrom}."
      },
      "setApprovalForAll(address,bool)": {
        "details": "See {IERC721-setApprovalForAll}."
      },
      "supportsInterface(bytes4)": {
        "details": "See {IERC165-supportsInterface}."
      },
      "symbol()": {
        "details": "See {IERC721Metadata-symbol}."
      },
      "tokenURI(uint256)": {
        "details": "See {IERC721Metadata-tokenURI}."
      },
      "transferFrom(address,address,uint256)": {
        "details": "See {IERC721-transferFrom}."
      }
    },
    "version": 1
  },
  "userdoc": {
    "kind": "user",
    "methods": {},
    "version": 1
  }
}